:02000004C0DE5C
:1000000010B58CB062B605F01FFF13F053FF6C46BD
:10001000204615F0F5F9ADF82C00000406D00020BC
:10002000ADF82C000A9814F063FF07E0684614F05E
:100030005FFF0A9005F058FE05F07CFE14F050FFBB
:10004000A04202D10A9814F053FFBDF82C0010B959
:1000500000200CB010BD13F030FF000010B50446B6
:100060000648784406F090FE0120207006F058FB08
:1000700008B102202070032010BD00BFD07601001F
:100080002DE9F04DCEB0DDF85CA11546044698464A
:100090000F464FF496712346CDF800A003AE764A82
:1000A00030467A4414F03CFC304606F06DFEDDF834
:1000B00060B15699012C37D0002C40F095806F4AE2
:1000C0000E46384629467A4414F02AFC694D09EB5D
:1000D0000500583015F0ACF904464046314615F09D
:1000E0003BF900208BF80000701E82B2002A00F05D
:1000F000B980210400F0B68000F0CAF818BF0124CE
:1001000021448BF80010C9B2514540F2AB80000485
:1001100000F09980481E504540F0958009EB05009D
:100120000AFB02001A4692E006F0FAFA00285BD0B9
:10013000CDF8048038462946514A7A4414F0F0FB41
:1001400030464FF4967115F007F94E4F4E48DFF8E0
:100150001C814FF0000B4FF0000A7F44784402905E
:10016000BBF1050F47D009EB0800CAF5967406EB02
:100170000A053A4650F82B00214620F00043284655
:1001800014F0CEFB00F08EF880B3A0422ED2824451
:1001900009EB080050F82B00B0F1FF3F0FDC3B4AA1
:1001A00006EB0A05CAF59674284621467A4414F0EF
:1001B000B7FB00F077F8C8B1A04217D28244BBF178
:1001C000040F0ED006EB0A05CAF59674029A28466B
:1001D000214614F0A5FB00F065F838B1A04205D225
:1001E00082440BF1010BBBE705203CE05220ADF847
:1001F00010001F4803900DF10C08404615F018F947
:10020000569D019E04463046294615F0A5F8589F94
:1002100000203870681E82B222B3210422D000F080
:1002200037F818BF01242144579C3970C9B2A14244
:1002300018D9000411D0481EA0420ED104FB02813F
:1002400030461A460CE009EB05000AFB020000F1FB
:100250005801404615F079F804E004FB028130466D
:1002600015F071F803204EB0BDE8F08D1C200000A1
:100270004552524F42540000FB750100FC740100CE
:10028000DD770100966C0100496D010041710100AC
:1002900081B2A3B2B3FBF1F101FB104083B21C4663
:1002A000002B70472846214615F0DEB810B5401ADD
:1002B000B0EB820F0CD3084B0648144692004B4417
:1002C0004844194415F03FF8044849F8004010BD6F
:1002D00000F05CFC1C2000004254000044200000A0
:1002E00010B50E4A002309F802300522FFF7DEFFA1
:1002F0000B480C4959F80020484401F12B03406891
:100300009A4203D101F5E674A04203D09A4202D189
:10031000884200D110BD00F03DFC00BF000000008D
:100320001C20000001000080F8B51C4A002309F8D9
:1003300002301B4A09EB02035A5C0A2A2CD85AB332
:10034000CC432044B0EB820F26D3DFF858C00B44D7
:100350001446013309EB0C016CB15E781D789F786F
:10036000D8780433013C360446EA056545EA07259A
:10037000284401C1F0E759F80C300B498B4209D1F0
:1003800009EB0C0010314068884202BF074849F869
:100390000020F8BD00F0FEFB00F0F8FB00000000BC
:1003A000425400001C2000002C000080442000006B
:1003B000B0B520480C4609EB0001CA786ABB042C92
:1003C0002DD9897802291BD001290ED029BB00F034
:1003D0004DFC00F089FC20460521FFF781FF1648FF
:1003E000012109F800100020B0BD134D19F80510C7
:1003F000B9B100F0F0FB01460020A14213D1B0BD1D
:100400000D4D19F8051061B100F0E5FB0021A04287
:1004100009F8051009D10120B0BD00F0BFFB00F0C4
:10042000B5FB00F0CCFB09F8050046F6831013F08D
:1004300044FD00BF425400000000000070B5264893
:100440000C4609EB0001CA78EABB042C33D98D783D
:10045000691E022914D2214E19F8061069B309EB5E
:1004600006024844611F52680530012A1AD100F083
:10047000E3FC03281AD0002009F8060000F08AFBEC
:10048000EDB900F0F3FB00F02FFC20460521FFF74B
:1004900027FF1248012109F8001009EB0001002094
:1004A000486070BD00F0D1FC03280ED1A81EB0FA40
:1004B00080F0400970BD00F069FB00F080FB074848
:1004C000002109F8001000F069FB002009F806007F
:1004D0004FF4C84013F0F1FC42540000000000004B
:1004E0002DE9FF4DDFF85CA10C4609EB0A00C1784D
:1004F000002940F09880042C40F2978080780021F9
:10050000661FCDE90211CDE9001180284AD00028EC
:1005100040F0898000F0AAFB00F0E6FB20460521B0
:10052000FFF702FF494859F80000B6EB800F7CD373
:10053000800009EB0A0102AA6B4601300144341A1B
:1005400001F105082146404601F06CFB00286ED100
:10055000DDE90023DDE9020101F02AFB0025064662
:100560000F46001B71F1000038BF0125002D08BFA8
:1005700026464046314600F0B9FB7040002D18BFBA
:10058000384300285AD130480125DDE9002309F815
:100590000050DDE9020101F00BFB6040084318BF89
:1005A00000253CE0DFF8A08019F80800002840D0C2
:1005B00000F09EFB044600F0ABFB02AA6B4621460E
:1005C00001F030FB98BBDDE90201DDE900234FF0CB
:1005D000000B001B344661F10001871841EB030555
:1005E000B81B75F1000038BF4FF0010BBBF1000FD5
:1005F00009EB0A0018BF3C462146053000F076FBA7
:100600006040BBF1000F18BF2843A0B987EA06007D
:1006100028434FF0000504BF09F80850012528467B
:1006200004B0BDE8F08D00F0B9FA00F0AFFA00F0C8
:10063000B1FA00F0C4FA002009F8080046F6831069
:1006400013F03BFC42540000000000004420000076
:100650002DE9F04DAAB08346002017460C46ADF8B0
:10066000360001AE304614F0CBFE0546ADF8300042
:1006700080B210B3052800F0508100F09AFA05F41A
:100680007040B0F5104F05D0B0F5C04F1CBF0D2025
:1006900060F3DF25ADF836504946E148BDF8361025
:1006A00022684844090A8154BDF836102268104473
:1006B0004170206802302060C9E0009401A814F065
:1006C00017FCD74C0B90484619F80450062D02D061
:1006D000E02D40F04481042F40F224814846E02D73
:1006E00009EB0400407808BF022833D0012800F04D
:1006F000BC80022870D0042800F0E88005286BD068
:10070000062869D0072840F0368114F070FBAA282B
:1007100040F0FF80D348784406F036FBC14D09EB2A
:1007200005004168013141603946FFF787FE002826
:1007300000F04E8100F0C8FA0020014605F086FB6B
:1007400006F010FB00F0F4FA054606F00BFB002D56
:100750006AD033E105213846FFF7E6FD484609EB4C
:100760000400C178022980F004818678B04809EB42
:100770000405CA4609F800104FF48271284614F0A7
:10078000EBFDDFF8A48200204FF4817129F8080006
:1007900009EB0802284600F0D5FD032840F0C4808C
:1007A000484639F80800002800F0BE80002E00F00E
:1007B000DA80A348A349A44A784479447A4405F0EE
:1007C00049FB012005F04EFBDBF80000944C40F0A3
:1007D0001000CBF8000001AE14F009FBAA2840F08D
:1007E00098803946FFF7E4FD002800F0BE804846B7
:1007F00009EB04004078062807D0052808D0022815
:1008000040F0878000F048FA04E000F057FA01E079
:1008100000F04EFA06F0A6FA00F08AFA054606F055
:10082000A1FA002D40F0848006F09CFA8A488B499A
:100830008B4A784479447A4405F00CFB032005F098
:1008400011FBDBF8000040F01000CBF8000014F0C2
:1008500047FBB04202D10B9814F04AFBBDF83000C0
:10086000002858D12AB0BDE8F08D14F0C0FAAA28AB
:100870004FD105213846FFF733FD09EB04054FF44E
:1008800082714F4695F80280284614F065FDDFF826
:1008900098A100204FF4817129F80A0009EB0A029F
:1008A000284600F0C7FC03283ED1484639F80A0024
:1008B000D0B3B8F1000F56D05E485F495F4A784424
:1008C00079447A4405F0C6FA0120B8E714F08FFAAB
:1008D000AA281ED1E02D1CD16548784406F054FAB0
:1008E0003946FFF7FDFD00283FD000F0DBF906F0A8
:1008F00039FA00F01DFA054606F034FA002D5DD1F4
:1009000006F030FA5B485C495C4A784479447A44A2
:1009100092E746F6861013F0D0FA00F04AF9052067
:1009200013F0CBFA00F032F94FF4C84013F0C5FAD7
:1009300000F057F900F036F90099122E086830449B
:10094000086043D141492846794414F067FDE8BB6B
:100950003F4840497844794405F0F6FA36E04FF4D0
:10096000DC4013F0AAFA009908604FF4104013F02D
:10097000A4FA00F013F900284DD1002109EB04027C
:10098000012309F80410D1709170D1713021537096
:1009900004239171332113725171244909EB010031
:1009A0004068B0FA80F19738B0FA80F04909400900
:1009B00008430099107108680930D5E700F011F973
:1009C00000F0F0F8009908683044086000F0E2F8A0
:1009D00011AC64272046394614F0B2FC09EB050639
:1009E000204639467368204A7A4413F099FF7068AC
:1009F0000521B0FBF1F101EB8101401AB5D11B4992
:100A00000EA80246794418C9098818C2118011A994
:100A100005F01EFAA9E74FF4DA4013F04EFA00BFD2
:100A20004254000000000000080000001C2F0000DD
:100A300048200000BFF7FFFF99F7FFFFBB01000050
:100A4000490F0000230F0000C1020000266C0100C6
:100A5000906F01006F6601007B0500005D050000DE
:100A60006F0200000672010065690100107001004C
:100A70004A6A0100A3040000850400000F02000080
:100A800008490748902339F801104844CAB28354F2
:100A9000104400224270881C81B2202013F01EBC3A
:100AA00042540000080000007CB500F031F9044613
:100AB00000F01EF9194E054600204FF48271ADF882
:100AC000060009EB060014F047FC00F003F930B112
:100AD0000DF1060000F077F800F05BFB05E00DF18A
:100AE000060000F070F800F01FFB032808D1BDF8E5
:100AF000060028B1C2B209EB060100F077F807E062
:100B00006F20012109F8060009EB06004170022060
:100B100081B2202013F0E2FB7CBD00BF42540000F4
:100B2000FEB500F0F5F8044600F0E2F8164F054671
:100B300000204FF48271ADF80A0009EB0706304639
:100B400014F00AFC0DF10A00ABB240F2011122468A
:100B50000090304600F02FFB032808D1BDF80A00B2
:100B600028B1C2B209EB070100F040F807E06F209E
:100B7000012109F8070009EB07004170022081B24A
:100B8000202013F0ABFBFEBD425400004FF4CE40DA
:100B900013F093B946F6841013F08FB94FF4D64092
:100BA00013F08BB9064609EB04002946324614F0CF
:100BB000CCBB0020ADF830000B9814F099B946F684
:100BC000871013F07AB9ABB240F2011122460090BF
:100BD00009EB060070474844053C0530214600F00B
:100BE00085B84FF48271284614F03EBC9023023041
:100BF0008B54114400224A7070470000F0B568B36E
:100C000062B3B1F1805F29D841B33BB390F800E003
:100C1000154D84460020082701267D44834204BFE9
:100C20001846F0BD8E4200D3D7B1042F0DD88E42A6
:100C300006D21CF806400837013644EA0E2E04E0BE
:100C4000C7F1050405270EFA04FE053F2EFA07F446
:100C500004F01F042C5D14540130DFE70020F0BDC8
:100C600000211154F0BD00BF296B010010B50848E8
:100C700009EB00040748784413F0DEFF02462046E3
:100C80004FF400514FF48043BDE8104005F0F2BD31
:100C90000A000000867701000148002100F0DEB85C
:100CA0000C2000000148012100F0D8B80C20000001
:100CB0000148022100F0D2B80C20000001480321B5
:100CC00000F0CCB80C2000000148042100F0C6B8A8
:100CD0000C20000003484844007A0438B0FA80F041
:100CE000400970470C20000005F0E0BD05F0F2BDA2
:100CF00080B506484844007A042803D1BDE8804006
:100D000002F040B905F034FE806880BD0C20000080
:100D100080B506484844007A042803D1BDE88040E5
:100D200002F028B905F024FE006880BD0C20000008
:100D3000B0B5174D09EB0500007A042803D102F085
:100D400019F9044602E005F013FE046809EB0500FA
:100D5000007A042803D102F015F9024602E005F0FA
:100D600007FE826809EB0500214601F08FFC04466E
:100D700038B909EB050001F017FD044605F0F2FF54
:100D800024B12046BDE8B04002F034BE0020B0BD22
:100D90000C20000080B501460448484401F070FD75
:100DA0000521002808BF0321084680BD0C20000053
:100DB000F0B585B0074600201E4614460D468DF856
:100DC00013000DF11300FFF7E5FF032820D1F9B25E
:100DD00005204AB2002A1BD49DF813208A4217D955
:100DE000DDE90A320C98CDE902200A48CDE900631A
:100DF0002A462346484401F06DFD0146C21E0520E7
:100E0000022A05D319B1012918BF002000E00320F0
:100E100005B0F0BD0C20000080B50A46014605482B
:100E2000484402F09BF80021002808BF032108462F
:100E300080BD00BF0C20000080B502F097F80021B3
:100E4000002808BF0321084680BD80B502F090F855
:100E50000021002808BF0321084680BD48440172D4
:100E600070472DE9F041ECB088460646D90002A84B
:100E70001F46154612F01CFF002450B9CDE900575B
:100E800002A801213246434612F00EFF002808BF97
:100E9000032420466CB0BDE8F081000020B1034976
:100EA00049F8010003207047052070471820000012
:100EB00080B5084859F8000048B14FF4807112F02D
:100EC000D7FE0021002808BF0321084680BD00206E
:100ED00080BD00BF1820000080B568B10A460146F9
:100EE000064859F8000038B112F0C6FE002100286B
:100EF00008BF0321084680BD052080BD18200000E2
:100F000080B558B1202909D30246054859F8000098
:100F100020B1114612F0A8FE032080BD052080BD3F
:100F2000182000002DE9F041C2B0B8B10D46A9B1BA
:100F300017469AB10646D90002A8984612F098FEC4
:100F4000002460B9CDE9007802A8012132462B4681
:100F500012F0AAFE002808BF032400E00024204667
:100F600042B0BDE8F08100002DE9F041C4B0054673
:100F700042F202008846D9001E461746ADF80C0121
:100F80000F48429002A812F073FE0024A0B9CDE9E8
:100F9000004402A842AA0021062312F085FE58B997
:100FA000CDE9007602A801212A46434612F07CFED4
:100FB0000024002808BF0324204644B0BDE8F08187
:100FC0000171A0E42DE9F045A1B000285AD01646E1
:100FD000002A57D0DDF8A080B8F1000F52D00C27BE
:100FE0000C468A294FD3202B4DD107AF054640210F
:100FF000384614F0A5F949204FF0000A394600227E
:1010000006902948A8F800A0CDF814A059F80000CF
:1010100000F04CF828BB07A917AB212020224FF085
:10102000200A12F039FED0B905A806A905F141073A
:1010300003223346CDE90210CDE900A717A840F2FC
:10104000016112F021FE50B905F14000059905F14A
:1010500020032A460090384605F098FCB8B14FF0BE
:10106000000A002717A8282114F076F907A84021C4
:1010700014F072F9BAF1000F05D12846214614F098
:101080006BF900E00C27384621B0BDE8F085BDF8CB
:10109000181029984131A8F8001008B1059901608D
:1010A00003274FF0010ADDE7442000002DE9F0415D
:1010B00090B00DF11008064617460D46404614F054
:1010C0009FF984B2ADF83C0054B10020ADF83C006B
:1010D0000E9813F00DFF4021284614F03DF910E062
:1010E00004A813F005FF0E90694600203346C1E9BD
:1010F0000057C1E902000B4909EB0102212113F05D
:1011000049FE13F0EDFE404502D10E9813F0F0FEBB
:10111000BDF83C0018B9204610B0BDE8F08112F0CF
:10112000CCFE00BF1C2000002DE9F04D92B048B16C
:1011300017463AB1DDF868B0BBF1000F02D00C469B
:101140008A2903D20C2012B0BDE8F08D0DF12808D9
:10115000054600F051F90DF1080A2021504614F01F
:10116000EFF83846314642462023FFF7DBFE404683
:10117000202152462023FFF7F7FE0328E3D1002069
:1011800021462023CDE900B002AA2846FFF71AFF26
:10119000D9E71CB568B162B1049C54B18A2908D35F
:1011A000202B06D10023CDE900432023FFF70AFFBF
:1011B0001CBD0C201CBD2DE9F0458DB048B1174673
:1011C0003AB1DDF850A0BAF1000F02D00D468A29DD
:1011D00003D20C200DB0BDE8F0850DF114080446D3
:1011E00000F00AF93846314642462023FFF739FE1F
:1011F0000328EFD1002629462023049604A8CDE930
:1012000000A005AA2046FFF7DDFE0328E1D10498DF
:101210000DF10F018DF80F60FFF7FEFD0328D8D107
:10122000601C2146402214F090F89DF80F002070B9
:101230000320CFE770B580B381292ED3144662B363
:10124000054614F089F82846002100F029F8032803
:1012500022D115202E4605F143024121142385F8A1
:101260004100012006F8420F2846FFF75BFE2920C7
:1012700095F8411005F15802292385F857003046AA
:1012800000F006F995F85710884208BF81202080A9
:101290004FF00A0008BF032070BD052070BD00009C
:1012A00070B5AEB068B30D4604461BA84C2114F0CF
:1012B00047F811A8282114F043F801AE4021304628
:1012C00014F03EF81E4831462A4659F80000FFF750
:1012D000EDFE30B901A911AB2120202212F0DCFC77
:1012E00098B10026002511A8282114F035F801A88E
:1012F000402114F031F82EB92046412114F02CF889
:1013000000E00C2528462EB070BD1BAB212000212B
:101310000022002612F0C4FC0028E3D11BAD11AA64
:1013200021200123294612F0B3FC0028D9D105F170
:1013300008012046412214F006F803250126D2E7D1
:1013400044200000F0B593B0002840D08B293ED354
:101350001446E2B3054613F0FFFF254809EB0001F0
:10136000681CFFF79DFF032832D141202F46202122
:1013700007F8020B0BAE304613F0E2FF384640216F
:1013800032462023FFF76DFD032821D128206F4628
:10139000292185F84200384613F0D2FF384629212A
:1013A00013F0DAFF134B781C06F10C0100227B448A
:1013B000132A0FD811F8016B013206F00F07360916
:1013C000DF5D9E5D077000F8016C0230F0E70520DC
:1013D00013B0F0BD0021282200F8011C05F14300E4
:1013E000694613F0B0FF6B2020800320F0E700BFB8
:1013F000482000008860010020211E46404613F06E
:101400009FBF00000748084A59F80010484402F1FD
:101410002B034068594050400843B0FA80F040091F
:10142000704700BF1C200000010000802DE9F04D36
:101430000027924688468346002400250026C2E9FC
:10144000007718E01BF805003F2E00F07F0001D167
:10145000012814D8402E00D388B9B2B2002113F06D
:1014600085FD0C430743CAE900741BF905000028F9
:101470000BD501350736092D98BF4545E2D300202D
:10148000CAE9000080B2BDE8F08D681CFAE70000F0
:101490002DE9F04D96B03AB11C46022B04D380469C
:1014A00010B18A46022904D20026B0B216B0BDE8B7
:1014B000F08D10462146154613F04EFF854898F8EA
:1014C000007059F80010484407F1300240686A7013
:1014D000814A50402B32514008434FF0660008BF0C
:1014E000742028700026781E02284BD3042F4DD07C
:1014F000032F00F08E80002FD7D1AAF10101002622
:1015000008F10100CDE9046689B204AAFFF78EFF55
:101510000028CAD0042CC7D305F1020BDDE9047AF8
:10152000A11E584613F018FF57EA0A005E4602D182
:101530003020EE1CA870A6EB0B08E01E039057EAC3
:101540000A001CD003988045AEDA384651460A227C
:10155000002313F069FD8A4600EB800108F10108C1
:10156000A7EB4101074641F0300106F8011BE6E711
:101570009BF8000016F8011D0BF8011B30705E454A
:10158000F6D880E003974FF0140B45E00020AAF155
:10159000010BCDE9140008F101001FFA8BF114AA28
:1015A000FFF744FF00283FF47FAF411C5145BFF4D3
:1015B0007BAFCDE9000BCDE9024704AC19212046F1
:1015C00013F0BEFEDDE9147B2046192113F0C4FEA2
:1015D000594657EA0B00A34604D1302004F1010B11
:1015E0008DF81000ABEB040457EA010051D0172C22
:1015F0005CDC38460A22002313F016FD00EB800263
:101600000134A7EB4202074642F030020BF8012BEF
:10161000EAE74FF0300B039704AF3A21384613F056
:101620008FFE6FEA0B001FFA8BFB00EB0A01039899
:1016300004284FF0000008BF88B20BEB0001013115
:1016400051457FF432AFBBF1360F3FF62DAF40442A
:101650005A46411C384613F076FE07EB0B02404613
:1016600051460423FFF75EFC2846214613F0FCFE9A
:1016700080B20BF104012A18231A3846FFF7BEFA8C
:1016800000283FF411AF2846214613F0EDFE064630
:101690000BE7074604A8029C83450BD901781BF889
:1016A000012D00F8012B8BF80010F5E7029C4FF09C
:1016B000000B0BE0094AA81CA11E04AB7A4413F0EE
:1016C0002FF9DDE90010A0EB010B384600287FF46C
:1016D000EBAEA1E71C20000001000080C55E010008
:1016E00010B504460648784405F04EFB01202070F2
:1016F00005F016F808B102202070032010BD00BFCD
:10170000715C01002DE9F04DCEB003AC0F460546EB
:101710004FF482719846164604F1280013F010FE2B
:1017200078482822484400F14301204613F00BFE7C
:101730000DF5AC7B012D9BE8100C30D0002D47D16E
:10174000744A384631467A4413F0EAF803AE30461C
:1017500013F06EFE05464046214613F0FDFD0020C5
:101760008BF80000601E82B2002A00F0C7802904B6
:1017700000F0C48000F0DAF818BF012421448BF88F
:101780000010C9B2514540F2B980000400F08080D9
:10179000481E50457CD10AFB02614046A7E004F098
:1017A000BFFFA8B15C4A384631467A4413F0B8F816
:1017B00055484FF4967119F8006003AD284613F0B0
:1017C000CBFDCDF800802EB1052E0CD9522065E05E
:1017D000052094E05148784406C806C50188807801
:1017E0002980A8705EE0701E4FF000084FF0000BDB
:1017F00001904B48784402901FFA8BF7BE4251D9B2
:101800004248AA4605EB0804C8F59675029A29468F
:10181000484450F8270020F00043204613F080F899
:1018200000F08EF8C0B3A84236D28044374848440E
:1018300050F82700B0F1FF3F0FDC3A4A0AEB0804EA
:10184000C8F59675204629467A4413F069F800F0E9
:1018500077F808B3A8421FD2804401985546B84291
:1018600001D1569C11E0304A05EB0804C8F5967585
:10187000204629467A4413F053F800F061F858B135
:10188000A84209D2569C804455460BF1010BB3E7A0
:101890000AFB026140462FE05220569CADF8100032
:1018A0001B4803900DF10C08404613F0C1FD009F4A
:1018B00005462146384613F04FFD589E00203070F3
:1018C000601E82B2D2B1290418D000F02FF818BFE0
:1018D00001242144579C3170C9B2A1420ED90004A1
:1018E00007D0481EA04204D104FB028138461A46A4
:1018F00002E004FB0281384613F025FD03204EB0C0
:10190000BDE8F08D42540000442000001C2000007F
:101910004552524F265C01006D61010022620100B8
:10192000FC550100A55A01003156010081B2ABB24D
:10193000B3FBF1F101FB105083B21C46002B704742
:101940002046294613F090BD2DE9F041B8B10D466F
:10195000A9B114469AB1D0E91C1281F04401114397
:101960000DD1C16E0A784B788E78CF7842EA032287
:1019700046EA07261E4B42EA06429A4202D00D2052
:10198000BDE8F081043100220C2A05D20B78002B2F
:10199000F5D101320131F7E71649D0F84C800B2719
:1019A00079440B39013F18D001F11F060B31404635
:1019B000142213F0E5FC00283146F3D1304613F031
:1019C0003BF90D4A034628460A217A4412F0A8FF43
:1019D000B07A20700020BDE8F08120210020A9709D
:1019E0003F21E870697029702070BDE8F08100BF68
:1019F000A9059CBB82600100045601002DE9F04D51
:101A0000A8B0002867D00C46002964D0DDF8C0B02B
:101A1000BBF1000F5FD00546002016460DF1930282
:101A20009A46ADF89C00CDE925008DF8930025A9D4
:101A30002846FFF789FF074605F094F9002F4BD1A0
:101A40001CAF20214FF02008384613F079FCE86ED7
:101A50000121CDF868808DF86C103946243019903A
:101A600019A803F0E4FC074605F07CF9A7BB6D4616
:101A70006421284613F064FC1CA80A212A4664232A
:101A800004F018F838B39DF893206846642105F0F7
:101A90001BF828B3684625AA6421002305F020F925
:101AA00003281FD16F46384613F0C2FC022829D301
:101AB000B0F5806F26D800224FF6FF710BB2B3F15C
:101AC000FF3F11DC15B2A8420EDD7B5D2E2B08BF57
:101AD00011460132F2E70527384628B0BDE8F08DFF
:101AE0000D27F9E70C27F7E7002B0BD489B2013853
:101AF00000220131884205D93B5C302B02D13A5497
:101B00000138F7E7E846404613F092FC05462046C8
:101B1000314613F021FC701E002782B28BF8007052
:101B2000002AD9D029041FD081B2ABB2B3FBF1F1A6
:101B300001FB105083B21D46002B18BF012529441C
:101B40008BF80010C9B251450ED9000407D0481EC9
:101B5000504504D10AFB028120461A4602E00AFBE6
:101B60000281204613F0EFFB0027B5E7E0B1D0E992
:101B7000141281F01401114316D1C16EA1B1D0E944
:101B80001C0280F0440010430ED108784A788B780C
:101B9000C97843EA012140EA022040EA01400349B2
:101BA000884204BF0120704700207047A9059CBBF4
:101BB00070B50026141853EB010556F100004FF0E4
:101BC000FF301CBF4FF0FF3170BDA11A75EB030150
:101BD0004FF0FF3124BF2046294670BD401824BF76
:101BE0004FF0FF307047884238BF4FF0FF307047EA
:101BF00018B112B109B1082901D90520704703466F
:101C000000200129C2E9000003D11978C2E90010BF
:101C10007047581E21B1435C013902F8013BF9E7D6
:101C200000207047FEB5B8B1B1B11546A2B11C464F
:101C300093B10021C5E90011C4E900110678711EB5
:101C400001290BD8D5E90012013142F10002C5E9A2
:101C500000120221467802E00120FEBD0121A6F11A
:101C6000F702A6F1C00303FB02F7002F09DDF82EEF
:101C700005D30844D1B26A46FFF7BAFF68B1022023
:101C8000FEBDD5E90001013041F10001C5E90001C7
:101C90000020D9B2C4E90010FEBDD5E900018019C9
:101CA00041F10001F63861F10001C5E90001DDE90B
:101CB0000001C4E900010020FEBD2DE9F04DA2B0F5
:101CC000002850D00C4600294DD0DDF8A880B8F18E
:101CD000000F48D01AAD074620219B4616462846DD
:101CE00013F02EFB01A8642113F02AFB3846294685
:101CF00003F00DFB074605F035F8AFBB1AA801AAA3
:101D00000A21642303F0D6FE68B301AD284613F020
:101D10008FFB82462046314613F01EFB701E0027C3
:101D200082B288F80070FAB15FEA0A4125D081B228
:101D30001FFA8AF3B3FBF1F101FB10A083B21E4638
:101D4000002B18BF0126314488F80010C9B259454C
:101D500013D900040CD0481E584509D10BFB025181
:101D600020461A4607E00527384622B0BDE8F08D28
:101D70000BFB0251204613F0E6FA0027F4E70000BF
:101D80002DE9F04D92B0A0B3456895B30C4681B3F0
:101D9000DDF868A0BAF1000F2BD0D0E9020180F085
:101DA0001400084325D10DF1050041219B4616463C
:101DB000871C384613F0C4FA782041218DF80600BC
:101DC00030208DF80500384613F0C6FA254900206A
:101DD0007944132811D82A78013012098A5C07F84F
:101DE000022B15F8012B02F00F028A5C07F8012C78
:101DF000EFE7052012B0BDE8F08D0DF105080025D4
:101E000040463D7013F014FB07462046314613F060
:101E1000A3FA701E8AF8005082B20AB339041FD0A8
:101E200081B2BBB2B3FBF1F101FB107083B21D466E
:101E3000002B18BF012529448AF80010C9B2594562
:101E40000ED9000407D0481E584504D10BFB02816F
:101E500020461A4602E00BFB0281204613F073FA7B
:101E60000020C7E76656010060B140F201118842C8
:101E700004BF0720704740F20A21884214BF0620A1
:101E8000082070470020704770B586B00546887BF3
:101E900040281DD10E462846442113F05DFA40200B
:101EA0002C4644F8400FB07B402811D102AB30469D
:101EB0002946224605F09EF968B140F20111884298
:101EC0001AD040F20A21884214BF0620082000E000
:101ED0000A2006B070BD2168022920D32878042882
:101EE0000FD001280AD0022808D0032819D0B0B991
:101EF000481E152813D216E00720EAE715290ED14F
:101F000011E0013900206A46CDE90000681C89B261
:101F1000FFF78CFA18B121680130814203D81220F2
:101F2000D7E73129FBD10020D3E72DE9F04D88B068
:101F300050B1144642B102460520142905D1119929
:101F400019B11078FF2803D0052008B0BDE8F08D46
:101F50009846002501200027142808D0115C3B0278
:101F6000013043EA156741EA05210D46F4E70DF11A
:101F700002001C2100F1020A504613F0E1F9FFF7BC
:101F800041FA4FF0300B662100288DF803B018BFDE
:101F900074218DF8021050461C2113F0DDF955EA2A
:101FA0000700564604D10DF102008DF804B0C61C9E
:101FB000A6EB0A0B55EA07001CD0BBF11A0FC3DCD5
:101FC000284639460A22002313F02EF80F4600EB6C
:101FD00080010BF1010BA5EB4101054641F03001F9
:101FE00006F8011BE6E79AF8000016F8011D0AF84A
:101FF000011B30705645F6D80DF1020A1E215046DD
:1020000013F032FA06462046414613F0A5F9A8F12E
:1020100001010020119D8AB2002A287095D0300459
:102020001BD000F025FB109E83B21946002B18BF71
:10203000012139442970C9B2B1420ED9000407D038
:10204000481EB04204D106FB02A120461A4602E017
:1020500006FB02A1204613F076F9002075E72DE972
:10206000F04599B06E460C460546642198461746E1
:10207000304613F071F9B5F8401028463246642313
:10208000FFF706FA10B10546642801D912202CE0AA
:10209000DDF880A02046394613F05EF9791E002055
:1020A0008AB28AF8000002B388B2ABB2B3FBF0F791
:1020B00007FB115083B21946002B18BF0121394488
:1020C0008AF80010C9B241450ED9000407D0481E55
:1020D000404504D108FB026120461A4602E008FB95
:1020E0000261204613F02FF9002019B0BDE8F085F9
:1020F0002DE9F04D90B007460078042840D100202B
:102100007D1C1646CDE90013CDE90E00B7F840005E
:102110000EAA013881B22846FFF788F9396C0446C7
:10212000C04301EB00081FFA88FBBBF1140F29D153
:102130000DF10B00DDF860A02B21871C384613F051
:10214000FFF878202B218DF80C0030208DF80B0043
:10215000384613F001F9274800EA4800DDF800800E
:102160002B2813D8244A281900217A4459450BD228
:1021700010F8013B00F083FA7C7007F8023BF5E7AA
:102180000A2033E0052031E0002038704046314617
:1021900013F0E2F80020019D8AF80000701E82B260
:1021A0001AB381B22D23B3FBF1F14843C0F12D00E6
:1021B00083B21C46002B18BF01242144A9428AF88F
:1021C000001012D9000409D0481EA84206D10DF112
:1021D0000B0005FB020140461A4604E00DF10B001E
:1021E00005FB0201404613F0AEF8002010B0BDE838
:1021F000F08D00BFFCFF0100CC5201007FB504460A
:10220000887B40281DD10D462046882113F0A4F874
:102210008120264646F8840FA87B402811D16B46C2
:1022200028462146324604F0E5FF68B140F201112C
:1022300088420FD040F20A21884214BF06200820AD
:1022400000E00A2004B070BD306828B1012805D133
:102250000D20F7E70720F5E70020F3E720780028B6
:1022600018BF0D20EEE70000F8B50F46D0F8841037
:10227000069E1C46012907D80C4A204631467A445E
:1022800012F04EFB0120F8BD1546421C481E83B2D9
:102290003846294604F0ACFA204631463A462B46E9
:1022A00004F06CFA002818BF0120F8BDB4500100FA
:1022B0002DE9F04DD2B00546D0F88400402801D970
:1022C0001127A3E002AF8B4650219A46904638462C
:1022D00013F042F82AACA021A026204613F03CF8C7
:1022E00028463946502223460096FFF7BDFF28B303
:1022F00002AE5B9CA021304613F02EF82AAD284692
:1023000013F096F8E4B20746D4B19F2C27D2B81C3C
:10231000A12824D2A74220D9414A3046A0212B46E9
:102320007A44019212F0FCFA391B2E2270186B18B5
:10233000C1F19F0100F8012B019A28E00D2765E00B
:102340003FB1A12F0BD202A8334A2AABA0217A4475
:102350001DE03020ADF808001BE09E2C02D32D4874
:10236000029016E00020E41BB51C30228DF80A0014
:1023700042F630602146ADF80800284612F0E7FF2B
:10238000264AC4F19E0128192AAB89B27A4412F078
:10239000C7FA02A8234AA021002300277A4404F0A8
:1023A0009FFC03282AD102AE5A9C304613F040F815
:1023B00005465846414612F0CFFFA8F101002770AC
:1023C00082B21AB3290420D081B2ABB2B3FBF1F1CF
:1023D00001FB105083B21D46002B18BF0125294474
:1023E0002170C9B2514510D9000409D0481E50458A
:1023F00006D10AFB026158461A4604E0052705E0AB
:102400000AFB0261584612F09EFF0027384652B080
:10241000BDE8F08D45525200804C0100424C010055
:10242000AE4C0100854E01002DE9F04DADF6D81DF2
:102430000746481EC0089C2820D801AC0E46DDF88F
:10244000FCB9DDF8F8A940F6D1111D4690462046AA
:1024500012F076FF204640F6D11112F07DFF264A99
:10246000601C00217A44B1420AD217F8013B00F007
:1024700006F9047000F8013C0230F4E7112037E05F
:10248000002400F8014C04F06DFC01AE304612F05F
:10249000CFFF07464046294612F05EFF681E8BF8C4
:1024A000004082B20AB339041FD081B2BBB2B3FB81
:1024B000F1F101FB107083B21C46002B18BF012400
:1024C00021448BF80010C9B251450ED9000407D041
:1024D000481E504504D10AFB026140461A4602E0FC
:1024E0000AFB0261404612F02EFF04F03BFC002084
:1024F0000DF6D81DBDE8F08DD24F01002DE9F04159
:10250000A0B00D46C921044612F026FFA87BC028C2
:1025100004D1E87BC00703D1AE8905E00A204DE075
:10252000284604F089FC0646284604F0C6FD60B142
:1025300040F20111884206D040F20A21884214BFBD
:10254000062008203AE0072038E007A86421642725
:1025500012F0F6FEF0B2069790F02A0F2DD107AEDA
:1025600006AA28460023314604F044FE0028DFD1A5
:10257000BDF8181004AA184D30467D44A847C7B2CC
:10258000BDF8180002AA06EB0708C01B81B240463E
:10259000A847069AC1197018511A6A4689B2A84705
:1025A0009DF8000090F0710F07D19DF8080090F0A1
:1025B000010F02D19DF8100018B11E2020B0BDE817
:1025C000F08106984146C61B2046324612F0BBFEFB
:1025D0000020C4F8CC60F1E7AFEEFFFF2DE9F04535
:1025E00099B0064668460C4663219A461746451C34
:1025F000284612F0A5FE6220D6F8CC102A466323A6
:102600008DF800003046FEF7F9FA30B3E846209D19
:10261000404612F00DFF06462046394612F09CFE59
:10262000791E00208AB22870FAB130041CD000F064
:102630001FF883B21946002B18BF012139442970B5
:10264000C9B2514510D9000409D0481E504506D1E1
:102650000AFB028120461A4604E0012005E00AFB3D
:102660000281204612F06FFE002019B0BDE8F0850F
:1026700088B2B3B2B3FBF0F707FB116070470131CA
:1026800003F00F041B09145DD35C7047F8B50446D2
:10269000444816460D46784404F076FB207A042818
:1026A00010D001281AD0022822D003282AD098B9A5
:1026B00000F078FC30D0BDB3384800F065FC002550
:1026C000012733E004F02CF830B1344800F06FFCFF
:1026D000BDE8F84002F09EBC19255DE000F062FC08
:1026E0001CD07DB32D4800F04FFC002501272BE0C6
:1026F00000F058FC14D09DB3284800F045FC00259C
:1027000001272FE000F04EFC0CD0BDB3234800F0B1
:102710003BFC0025012733E0022507E0022513E0FA
:1027200002251FE002252BE00225002704F01AFBFA
:1027300004F018FB87B3194800F039FCBDE8F840F5
:1027400001F0D8BB0225002704F00CFB04F00AFBC3
:1027500017B3134800F02BFCBDE8F84001F0D6BDDC
:102760000225002704F0FEFA04F0FCFAA7B10B489A
:1027700000F01DFCBDE8F84000F0A4BF02250027D2
:1027800004F0F0FA04F0EEFA37B1044800F00FFC60
:10279000BDE8F84000F010BC2846F8BD502000000D
:1027A000802700008F4901002DE9F04D9AB00446C2
:1027B0003248784404F0E8FA207A04280DD0012841
:1027C0000FD0022810D0032812D000284DD12A485B
:1027D00000F0EDFB01F05BFD0DE0204602F03CFC5B
:1027E00009E001F073FE06E0204601F04AF802E03D
:1027F000204600F03DFD054604F0B4FAC5BB0026B6
:102800000DF1670120468DF8676000F039F8054644
:1028100004F0A8FA65BB0DF13C082821404612F0EF
:102820008FFD0DF1140B2821584612F089FD0DF192
:1028300013074FF0000A9DF86700824517D28DF804
:102840001360CDF800B0282001A942462823C1C159
:1028500020465FFA8AF100F03DF8054604F082FA5E
:102860000AF1010A002DE6D002E0192500E000255A
:1028700028461AB0BDE8F08D50200000E850010055
:1028800010B50C46017A04290BD001290CD002297D
:1028900012D0032913D0C1B90D49494401F0F9FC04
:1028A0000FE002F0DBFB0CE0204601F0A9FF04463C
:1028B00004F058FA3CB905E000F0E5FF01E000F053
:1028C000D9FC20700024204610BD1924FBE700BF6E
:1028D00050200000F0B585B0047ADDE90C5CDDE93C
:1028E0000A76042C0FD0012C14D0022C19D0032C02
:1028F0001ED0002C11BF1920CDE90076CDE9025C75
:1029000000F01EF81AE0CDE90076CDE9025C02F095
:10291000A7FB13E0CDE90076CDE9025C01F0E6FD0E
:102920000CE0CDE90076CDE9025C00F0AFFF05E0F8
:10293000CDE90076CDE9025C00F0A6FC05B0F0BD63
:102940002DE9F04D9AB01F4616468846044603F01E
:10295000E7FE82463046394612F0FEFCDDE922B53C
:102960005846294612F0F8FCDA4A304639467A448D
:1029700011F0D6FFD84A584629467A4411F0D0FFC4
:10298000259900208DF8670008700DF16701204639
:10299000FFF776FF044604F0E5F9FCB904F0E2F92C
:1029A0009DF86700404518D9DFF8E043454609EB3C
:1029B000040002F081FAA8B12398294632463B462A
:1029C000CDF800B00190249802902598039009EB6F
:1029D000040002F021F8044600E0012420461AB069
:1029E000BDE8F08D09EB0400BC4AD0E98E015040EF
:1029F000084302D103F094FEC8B309EB0400017A46
:102A000090F84C00043818BF0120042918BF08F1C1
:102A100001085FFA88F10022012988BF01221040D5
:102A20004044C0B2092824D0DDF88C80012827D08A
:102A3000022831D0032840D004284FD0052857D091
:102A400006287AD0072800F08380082800F09380B9
:102A5000002840F0CA80CE4A304639467A4411F008
:102A60005FFF2598009009EB040008301FE0222446
:102A7000B4E7DDF88C80BAF1000F00F0B680D9E041
:102A8000C44A304639467A4411F04AFF25980090EE
:102A900009EB040008301BE0BF4A304639467A444F
:102AA00011F03EFF2598009009EB04004C30249B68
:102AB00059464246FFF71CFB8DE7B84A3046394677
:102AC0007A4411F02DFF2598009009EB04004C305A
:102AD000249B59464246FFF7C2FA7CE7B04A30468B
:102AE00039467A4411F01CFF00F055FA98303CE06A
:102AF0000DF114085021404612F022FCA94A30463C
:102B000039467A4411F00CFF09EB04005021D0E95A
:102B10004845404612F020FCB5F1FF3F40F3A58048
:102B200005AE54EA0500B04640F0A5803020B0461E
:102B30008DF81400701C06469DE09C4A30463946CC
:102B40007A4411F0EDFE00F026FA00F5D8700CE0A2
:102B5000BAF1000F6ED0964A304639467A4411F0E9
:102B6000DFFE00F018FA00F59470249B59464246A7
:102B7000FFF79EFB2FE7BAF1000F36D08D4A3046A3
:102B800039467A4411F0CCFEB8F1020FC0F0E8806B
:102B900009EB04004146D0E92454584612F0DCFB0E
:102BA00055EA04005E4603D130205E4606F8010B6C
:102BB000A6EB0B07A8F1010855EA040000F0D2804B
:102BC000474580F2CD80284621460A22002312F094
:102BD0002BFA0C4600EB80010137A5EB41010546BD
:102BE00041F0300106F8011BE6E709EB040090F81C
:102BF000400250B39DF86710411A2944814232D2F5
:102C0000259D0120A246CCB23946631C287030466F
:102C10006B4A7A4411F084FE304604F0B5F82498EB
:102C200021465A464346CDE9000509EB0A0001F06A
:102C3000DEF8D0E6249839465A4643460090259857
:102C40000190304600F0BEF80BE05B4A3046394652
:102C50007A4411F065FE594A584641467A4411F0CB
:102C60005FFE0024BAE61024B8E608F101062D2024
:102C70008DF81400B046A6EB080A54EA05001ED0F1
:102C8000BAF14E0F6CDC204629460A22002312F0CE
:102C900079F90A2201EB81070AF1010AA0FB02235C
:102CA000A21A03EB4703044665EB03030D4602EB50
:102CB000E37282EAE372303206F8012BDDE7239FEC
:102CC00046450DD998F8000016F8011D08F8011BBB
:102CD0003070F5E7B84801005746010015AA25E510
:102CE00005A85021122203F069FF032838D105A856
:102CF0002D4A5021002300247A4403F0F1FF0328D9
:102D00002ED105AD284612F093FB064658463946AB
:102D100012F022FB25980470781E82B2002A3FF43C
:102D20005DAE31049DD081B2B3B2B3FBF1F101FBD2
:102D3000106083B21C46002B18BF01242144259C3F
:102D40002170249CC9B2A1427FF68BAF000417D03A
:102D5000481EA04214D104FB025158461A4612E004
:102D600005243BE6259A5E4507D99BF8000016F836
:102D7000011D0BF8011B3070F5E70120107070E7A2
:102D800004FB0251584612F0DEFA6AE750200000B8
:102D9000484A01001E4A0100C64C0100A44C010033
:102DA000884C0100EE4D0100294501001A44010044
:102DB000184E0100644801007A4901009F4C01004F
:102DC000FF4201002DE9F04DA4B015465E4A9B4636
:102DD0007A4411F0A5FDDDF8B480584C0120584A22
:102DE00088F8000009EB0400D0E98E0142400A4354
:102DF00004D008430BD1554A7A4401E0544A7A443E
:102E00002846594624B0BDE8F04D11F089BD029521
:102E100064212C98019003A84E4D7D44A84709EBEE
:102E200004000DF1720A1E21D0E98E765046A847A3
:102E300050461E21A84757EA0600544604D13020C8
:102E40000AF101048DF87200A4EB0A0557EA0600A6
:102E500013D01C2D1CDC384631460A22002312F008
:102E6000E3F80E4600EB80010135A7EB4101074670
:102E700041F0300104F8011BE8E70DF172008442D3
:102E800006D9017814F8012D00F8012B2170F6E71E
:102E900003A8642112F060FA0DF1720012F0C8FA72
:102EA00020B1652806D3274803900BE03020ADF809
:102EB0000C0007E003A8284A0DF1720364217A444C
:102EC00011F02EFD029D03AE6421304612F0CCFAC3
:102ED000304612F0ADFA04462846594612F03CFA44
:102EE000002088F80000ABF1010082B21AB321047F
:102EF00021D081B2A3B2B3FBF1F101FB104083B248
:102F00001C46002B18BF01242144019C88F80010A6
:102F1000C9B2A1420FD9019C000407D0481EA042AB
:102F200004D104FB026128461A4602E004FB026158
:102F3000284612F008FA24B0BDE8F08D50200000B9
:102F400015AA25E545525200B5470100794901000F
:102F5000674801003B2501001041010013460A4665
:102F60000149494401F07EBC8027000001F0FABF0E
:102F700002F038B80248484400F58070704700BF3E
:102F800050200000202070474FF4E661A6802560A5
:102F9000484412F0D5B925991220CDE9001009EB6B
:102FA0000400704700273004C4E90077704709EB3C
:102FB0000001204670470000F0B58DB00D46044674
:102FC0008188C288006808AB009306AB1044891A58
:102FD000002203F068FF28B1FEF746FF0646F0B274
:102FE0000DB0F0BD0A9870B39DF82E00802828D14E
:102FF0009DF82F00400728D408A800F02BFB31BB18
:103000000B2827D19DF82E0000F0DF00802818D172
:1030100008A802A904F05EF80028DDD102A928461C
:10302000FFF76CFA00F046FB002ED8D100F03EFB13
:1030300007D002A803F0CEFF0028CDD19DF81600DE
:1030400050B10A26CBE70C26C9E70220C4E74FF4AB
:103050008060C1E70E26C2E702A800F0FBFAC5E9CE
:10306000340100F023FBECD002A803F0B3FF0028EA
:10307000B2D19DF81600F528E3D1BDF81400002860
:1030800018BF012085F8180402A803F0ABFF002840
:10309000A2D105F1D80002A9FEF7F6FE00F00AFB66
:1030A000002E9CD100F002FBCBD002A803F092FFCF
:1030B00000287FF491AF05F58E7002A9FEF7E4FEBB
:1030C00000F0F8FA002E7FF48AAF00F0EFFAB8D0E3
:1030D00002A803F07FFF00287FF47EAF9DF8160062
:1030E00040F02001602914D14FF4807205F5B071D1
:1030F00040280C920FD060280BD102A80CAA002304
:1031000004F078F870B90120002685F868020C9860
:103110000FE00A260FE002A80CAA0023002604F004
:1031200069F818B1FEF7A0FE064604E00C9885F891
:103130006862C5F8640203F015FE002E7FF44FAFFD
:1031400002A803F047FF00287FF446AF9DF8160061
:1031500000287FF476AF05F51C7602A8314604F00E
:103160002BF800287FF438AF00F0A0FA3FF469AFE5
:1031700002A803F02FFF00287FF42EAF9DF8160061
:1031800000287FF45EAF05F51E7702A8394604F0EB
:1031900013F800287FF420AF00F088FA3FF451AF15
:1031A00002A803F017FF00287FF416AFD6E900202D
:1031B000D7E900319E1A71EB000601DA0D260EE701
:1031C0009A1A61EB00002949511A70F1000001DAE6
:1031D0001F2604E705F5207002A9FFF70FF800F09D
:1031E00069FA002E7FF4FBAE00F060FA3FF429AFDD
:1031F00002A803F0EFFE00287FF4EEAE05F5427062
:1032000002A9FEF7FBFF00F055FA002E7FF4E7AEAF
:1032100000F04CFA3FF415AF02A803F0DBFE0028E3
:103220007FF4DAAE05F5647002A9FEF7E7FF00F05F
:1032300041FA002E7FF4D3AE00F038FA3FF401AF2C
:1032400002A803F0C7FE00287FF4C6AE08A802A9B2
:1032500003F099FF00287FF4BFAEA08821680844DE
:1032600009990E1A18BF0726B9E600BF00E9070042
:103270000020704780B503F053FA0421002818BFDE
:103280000A21084680BD00002DE9FC4D0C46104681
:1032900019461F46164612F05FF8DDE90A5A28461D
:1032A000514612F059F8DD4A304639467A4411F059
:1032B00037FBDB4A284651467A4411F031FB03F0D4
:1032C00051FDDDE90C8B03F02BFAC8B18CB3012C56
:1032D0005DD0022C67D0032C3CD0042C00F08F80F2
:1032E000052C00F0D080062C00F0E780072C00F0C1
:1032F000F080082C00F0FB80092C40F00C8165E088
:10330000092C27D0012C42D0022C4CD0032C5DD0AC
:10331000042C74D0052C00F0B680062C00F0CD8073
:10332000072C00F0D680082C00F0E180002C40F043
:10333000F280BC4A304639467A4411F0F1FAB64878
:10334000294652464346CDF800B04844FFF746F9B7
:10335000BDE8FC8DBE4A304639467A4411F0E0FAA9
:10336000BAF1020FC0F0B280AB4851464844D0E9F0
:1033700034B6284611F0F0FFB6F1FF3F40F3ED8080
:103380005BEA060000F0F5802F46A846F5E0A64A65
:10339000304639467A4411F0C3FA9F48CDF800B060
:1033A0004844D8300BE0A14A304639467A4411F0FF
:1033B000B7FA9948CDF800B0484400F58E70294618
:1033C00052464346FEF74BFEBDE8FC8D984A304618
:1033D00039467A4411F0A4FA8F48484490F818040A
:1033E0009449954A79447A440028284608BF0A46F9
:1033F000514611F095FA01208BF80000FFE08F4A4A
:10340000304639467A4411F08BFA834F09EB0700B6
:1034100090F86802002800F0928009EB070000F5A0
:10342000B07012F005F804462846514611F094FF9A
:10343000AAF1010100208AB28BF80000002A00F0F6
:10344000DF80200400F0DB8088B2A3B2B3FBF0F68B
:1034500006FB114083B21946002B18BF01213144ED
:103460008BF80010C9B2414540F2C980000400F059
:10347000C980481E404540F0C58009EB070008FBA5
:1034800002001A46C2E06E4A304639467A4411F0CC
:1034900047FABAF1020F19D35F4851464844D0E9C0
:1034A0009CB6284611F058FFB6F1FF3F59DD5BEAA4
:1034B000060074D02F46A84675E0624A3046394669
:1034C0007A4411F02DFABAF1020F27D20520BDE897
:1034D000FC8D5D4A304639467A4411F021FA1220BB
:1034E000CDE900B04C48484400F542700CE0574A22
:1034F000304639467A4411F013FA1220CDE900B073
:103500004548484400F56470294652464346FEF754
:10351000CFFEBDE8FC8D0120BDE8FC8D3E48514644
:103520004844D0E99EB6284611F016FFB6F1FF3F99
:103530001BDD5BEA060049D02F46A8464AE009EBAE
:1035400007002A465346CDE9008BB0F8641200F517
:10355000B070FEF769FFBDE8FC8D6F1C2D20B846EA
:103560000AE06F1C2D20B8461CE06F1C2D20B846C9
:103570002FE06F1C3020A846287000F09EF85BEA10
:10358000060006D05545A1DA00F08AF800F06AF886
:10359000F5E70D9A474530D900F07AF8FAE76F1C45
:1035A0003020A846287000F088F85BEA060007D0B3
:1035B0005545BFF68BAF00F073F800F053F8F4E711
:1035C0000D9A474519D900F063F8FAE76F1C3020CF
:1035D000A846287000F071F85BEA060007D0554550
:1035E000BFF674AF00F05CF800F03CF8F4E70D9A19
:1035F000474502D900F04CF8FAE70120107000208E
:10360000BDE8FC8D09EB070008FB020000F5B07176
:10361000284611F09AFEF2E7502000007A3F0100A0
:10362000193D010073450100A03F0100043D010068
:1036300005410100D63C0100CF3F0100593A01008D
:10364000464101002F3E01001B3901006243010089
:103650002B3E0100C17BC90718BF03F0EDBB808979
:10366000002170470A2201EB8104A0FB0223BBEB7F
:10367000020203EB4403834666EB030301350E4667
:1036800002EBE37282EAE372303207F8012B7047F3
:1036900098F8000017F8011D08F8011B38707047F2
:1036A000584631460A22002311F06CBC9DF81600E2
:1036B000FF287047064603F055BBA7EB0805AAF1A3
:1036C000010A7047F0B595B00D46C7880668614994
:1036D00004461222F019794411F0B2FE08B12126F5
:1036E00010E007F11200A188E08008AA009282B2DF
:1036F00006ABB018891A002203F0D5FB28B1FEF7FB
:10370000B3FB0646F0B215B0F0BD0A98002859D0B8
:103710009DF82E00802840F0978008A805A900F0A9
:103720009DF80028EBD1059803284DD19DF82E0077
:1037300000F0DF00802840F0878008A801A903F08E
:10374000C9FC0028DBD105F1900701A93846FEF736
:103750009BFB064603F006FB1EB93E78002E18BF01
:10376000122603F0FFFA002ECCD19DF81200FF289C
:103770006AD001A803F02EFC0028C0D105F1080092
:1037800001A9FEF73BFD064603F0ECFA002EB9D185
:103790009DF81200FF2857D001AE304603F01AFC06
:1037A0000028ACD111A896E88E008EC09DF81200BA
:1037B00080280BD048BB01A8294603F0FDFC50B976
:1037C000002623E00C269DE70E269BE711A80CA9F6
:1037D00000F044F818B1FEF747FB064616E00C98D7
:1037E000012833D11C48784403F0CEFA9DF85200EA
:1037F00000F0DF00802808D111A80DA903F06AFCB1
:103800000028E8D19DF8420010B30A2603F0AAFA76
:10381000002E7FF477AF9DF81200FF2814D001A886
:1038200003F0D8FB00287FF46AAF08A801A903F0D1
:10383000AAFC00287FF463AFA08821680844099996
:103840000E1A18BF07265DE70A265BE70E26DDE79E
:103850000DA8B1E782440100C136010010B50C4645
:10386000C17B4A0744BF022010BDC90706BF80893B
:10387000002103F0E1FA0029206018BF012188022D
:1038800010BD002070470320704700002DE9FC4D5B
:103890000C46104619461E46174611F05DFDDDE93F
:1038A0000A5A2846514611F057FD4D4A38463146CE
:1038B0007A4411F035F84B4A284651467A4411F0C3
:1038C0002FF803F04FFADDE90C8B022C0ED0012CFF
:1038D0001FD084BB444A384631467A4411F020F860
:1038E000BAF1020F2AD20520BDE8FC8D404A3846C5
:1038F00031467A4411F014F80620294652464346D0
:10390000CDE900B0354848440830FEF7D1FCBDE8A9
:10391000FC8D364A384631467A4411F001F82F487A
:10392000294652464346CDF800B048449030FEF751
:1039300096FBBDE8FC8D0120BDE8FC8D2748514673
:1039400059F800B048444768284611F005FDB7F122
:10395000FF3F05DD5BEA070006D02C46A84607E0DE
:103960006C1C2D20A04602E06C1C3020A84628705C
:10397000A4EB0805AAF1010A5BEA07001DD0554532
:10398000B1DA584639460A22002311F0FBFA0A221E
:1039900001EB8106A0FB0223BBEB020203EB460313
:1039A000834667EB030301350F4602EBE37282EABD
:1039B000E372303204F8012BDEE70D9A444507D953
:1039C00098F8000014F8011D08F8011B2070F5E7B5
:1039D000012010700020BDE8FC8D00BF50200000C9
:1039E0007639010015370100813801001C3A0100C9
:1039F000C83A0100002844D0222845D0022846D0E9
:103A0000032847D0042848D0052849D006284AD0A2
:103A100007284BD008284CD009284DD00A284ED072
:103A20000B284FD00C2850D00D2851D00E2852D042
:103A30000F2853D0102854D0112855D0122856D012
:103A4000132857D0142858D0152859D017285AD0E1
:103A500018285BD019285CD01A285DD01B285ED0AE
:103A60001C285FD01D2860D01E2861D01F2862D07E
:103A7000202863D0212864D0012865D135487844B6
:103A8000704733487844704752487844704732480A
:103A900078447047314878447047314878447047DB
:103AA000304878447047304878447047304878440C
:103AB00070472E48784470472E48784470472E4807
:103AC000784470472D48784470472D4878447047B3
:103AD0002C48784470472C48784470472B487844E9
:103AE00070472B48784470472A48784470472A48E2
:103AF000784470472948784470472948784470478B
:103B000028487844704728487844704727487844C4
:103B100070472748784470472648784470472648BD
:103B20007844704725487844704725487844704762
:103B300024487844704724487844704723487844A0
:103B4000704723487844704723487844704700BF43
:103B50007E330100323C0100E13B0100883401006A
:103B6000CB3D01004B3901000F340100093C01003D
:103B700084350100AD340100CD3A01001F3A010047
:103B8000E93D0100A6380100053B01008933010031
:103B900099330100A8360100573901005035010062
:103BA000D7340100CB3301007B340100CF3B01004F
:103BB0004C350100B43801005B3C0100CB360100FC
:103BC0007C390100B1330100573C0100DB380100B2
:103BD000B43A0100E43A0100A93B01002DE9F04D9F
:103BE000ADF5A16D8A46074608A84FF49D611E46B3
:103BF00090464FF49D6411F0A3FBBB7B002007941B
:103C0000DDF82845B0EB731F16D04FEA7310062875
:103C100035D0032852D002285BD108A907AA38461C
:103C200000F0E2F8002850D103F09CF80798002833
:103C300000F0C28081B234E0CDE9040004A9384626
:103C400003F0BAFA002840D1B8F1020FCDE902A87A
:103C5000C0F0AC80029CDDF80CB0DDE904672046C2
:103C6000594611F079FBB7F1FF3F6DDD56EA0700C9
:103C70002546A0466CD1651C3020A04667E038463A
:103C800000F030FB80F02A00084329D108A907AAD8
:103C90003846002303F0AEFAB8B903F063F8BDF874
:103CA0001C10CDE9006408A852464346FEF7BCFB51
:103CB00000F024FB002E40F088807BE008A907AAD2
:103CC0003846002303F096FA60B1FEF7CDF80646B9
:103CD0007BE0434A504641467A4410F021FE69E0B9
:103CE0000A2672E003F03EF80798002864D00DF130
:103CF000200B584611F09CFB07465046414611F0F8
:103D00002BFB00202070A8F1010082B2002A51D0C4
:103D100039044FD081B2BBB2B3FBF1F101FB10709B
:103D200083B21D46002B18BF012529442170C9B25A
:103D3000B1423FD900044DD0481EB0424AD106FBE3
:103D400002B150461A4648E0651C2D20A846207056
:103D5000A5EB080AABF1010B56EA070024D0DA45BF
:103D600024DA304639460A22002311F00BF90A22E0
:103D700001EB81040AF1010AA0FB0223B21A03EB52
:103D80004403064667EB03030F4602EBE37282EA45
:103D9000E372303205F8012BDEE798F8000015F8E1
:103DA000011D08F8011B28704545F6D8DDE902A879
:103DB000DDF82845079838B90A4A504641467A4402
:103DC00010F0AEFD01202070002630460DF5A16DEB
:103DD000BDE8F08D06FB02B1504611F0B4FAE9E7F8
:103DE0005F3201006A340100002303F003BA2DE9B9
:103DF000F04D9CB09B4615460F4600F07FFA96F8B2
:103E00004002B8420ED916AC06F241204FF49D6133
:103E1000002200941AAB03F046F840B1FEF724F8F4
:103E2000044600E0112420461CB0BDE8F08DDDE919
:103E3000248A02F097FF12A894E84E004EC09DF825
:103E4000660040280FD101AE4421304611F084FABB
:103E500016A93046FEF718F8D0B1CDF800A012A888
:103E600000F04FFADCE716A812A903F033F9002896
:103E7000D4D102F077FF002412AEBC421BD23046F0
:103E800003F0A8F80028C9D102F06CFF0134F4E770
:103E90009DF86600FF2821D0CDF800A001A8294692
:103EA0005A464346FEF7DBF8044602F05BFF002C5F
:103EB000B9D10024B7E7CDF800A012A800F021FA8C
:103EC000044602F04FFF002CADD112AC149838B16B
:103ED000204603F07FF80028F8D09FE70A24A2E7E5
:103EE00016A812A903F04FF9002897D102F03AFF63
:103EF000DFE700002DE9F04595B00D4604468188C6
:103F0000C288006809AB009307AB1044891A0022ED
:103F100002F0C9FF30B1FDF7A7FF0646F0B215B0B9
:103F2000BDE8F0850B98F0B19DF83200802818D1DB
:103F300009A806A900F09CF90028ECD106980938D8
:103F4000012812D89DF8320000F0DF00802808D147
:103F500009A802A903F0BEF80028DCD19DF81600DC
:103F600028B10A26DAE70C26D8E70E26D6E702A8FB
:103F7000294603F021F90028CDD100F0BBF9F0D09B
:103F800002A803F027F80028C5D1D5E900010843AD
:103F900001D00926C2E705F1080002A9FDF774FF68
:103FA00000F0ACF9002EB9D100F0A4F9D9D002A8E4
:103FB00003F010F80028AED105F14C0002A9FDF77E
:103FC00063FF00F09BF9002EA8D100F093F9C8D050
:103FD00002A802F0FFFF00289DD19DF816000028DE
:103FE000BFD19DF817008007BBD402A800F07AF972
:103FF000C5E9240100F07EF9B3D002A802F0EAFF7F
:1040000000287FF488AF05F1980002A9FEF7F6F8C2
:1040100000F074F9002E7FF481AF00F06BF9A0D0AE
:1040200002A802F0D7FF00287FF475AF9DF81600B4
:10403000002896D105F5907102A803F0BDF800287C
:104040007FF469AF00F056F93FF48BAF02A802F09D
:10405000C1FF00287FF45FAF05F5D87002A9FEF715
:10406000CDF800F04BF9002E7FF458AF00F042F984
:104070003FF477AF02A802F0ADFF00287FF44BAF0A
:1040800005F5947002A9FEF7B9F800F037F9002E93
:104090007FF444AF00F02EF93FF463AF02A802F0C2
:1040A00099FF00287FF437AF9DF81600002853D100
:1040B0009DF8170080074FD402A800F013F980463E
:1040C000002005F241260F464FF49D6185F840021D
:1040D000304611F041F900F00DF93DD002A802F090
:1040E00079FF18B1FDF7C0FE064636E09DF81600D0
:1040F000402831D19DF8170040074CD402A800F0A9
:10410000F1F8002949D18246B0F59D6F48D8BAF13F
:10411000000F1DD04FF49D603146149002A814AAE0
:10412000FFF762FE0028DDD11498B0F59D6F39D8F5
:10413000504535D10EA851460022009012AB3046B2
:1041400002F0B1FE80B3FDF78FFE0646002020B1DD
:10415000C5E98E87002600E00A2602F003FE002E45
:104160007FF4DCAE00F0C6F83FF4FBAE02A802F02C
:1041700031FF00287FF4CFAE09A802A903F003F8AD
:1041800000287FF4C8AEA088216808440A990E1A56
:1041900018BF0726C2E60220A4E74FF48060A1E71B
:1041A0000E26DAE70D26D8E79DF8460040280FD006
:1041B000A02842D080284ED100200D900EA80DA935
:1041C00000F056F80028BED10D98FF283FD344E0F8
:1041D0001098012841D12449012085F8400281EA44
:1041E0000801394336D13078582832D195F8420247
:1041F00044282ED11D487844017842788378C078CD
:1042000043EA002041EA022195F8442295F845321C
:1042100041EA004C95F8431295F8460243EA002023
:1042200041EA022141EA0040604512D105F24321F2
:104230003046442211F089F80BE09DF84700400712
:104240000DD40EA800F04EF859B9FE2805D885F80F
:10425000400201207BE70A2678E7112676E7022054
:1042600071E74FF480606EE715AA25E52838010054
:1042700010B50C46C17B490744BF022010BD00F0B9
:1042800031F80029206018BF0121880210BD0020EC
:104290007047BCB5062508460C468DF8075000F05F
:1042A0000BFE50B10DF10700214600F043FB9DF8D5
:1042B0000710002818BF002112E002F031FA002890
:1042C00018BF082594F84C10207A0439B1FA81F10E
:1042D00049092944042808BF013194F840020144E7
:1042E000C8B2BCBDC17BC90718BF02F0A5BD80899B
:1042F000002170479DF81600FF287047064602F01F
:1043000031BD29465A464346FFF768BCF0B591B027
:1043100006466D480C467821484411F01DF826B138
:104320001CB1B08808B1F088A8B30525002702F0B9
:1043300019FDDFB30020CDE90600CDE9040004A992
:10434000304600F043FF00F0E7FA7DBB9DF8100017
:1043500002281ED1B088F188814226D105980190AB
:1043600001208DF80C000020ADF80A00BDF81800FF
:10437000ADF808002078012803D0C02822D00228F8
:1043800062D104F1080101A800F09CFA00F0C4FA1F
:104390000CE00D250AE030680078411E012908D89C
:1043A0002070F0880130F08009E00F25284611B018
:1043B000F0BDC02801D21925B8E7C0202070002523
:1043C0000127B4E704F1180101A800F0FFFE00F096
:1043D000A3FA002DEAD104F1280101A800F0F6FEAD
:1043E00000F09AFA002DE1D104F1380101A800F0A3
:1043F000EDFE00F091FA002DD8D104F1480101A89A
:1044000000F0E4FE00F088FA002DCFD104F158014D
:1044100001A800F0DBFE00F07FFA002DC6D104F108
:10442000680101A800F0D2FE00F076FA002DBDD19F
:10443000BDF80800BDF80A10814207D10025C4E983
:10444000035565612572B1E70525AFE704F1080161
:1044500001A800F037FA00F05FFA002DA6D1002481
:10446000CDE90E44CDE90C4401A80CA900F0AEFE44
:1044700000F052FA002D99D1CDE90A44CDE9084463
:1044800001A808A900F0A2FE00F046FA002D7FF472
:104490008DAFDDE90E0180F001020A4304D008432C
:1044A0000ED1DDE90A0109E0DDE90A0180F0010031
:1044B000084305D10D98099900780978084301D07F
:1044C0001C2573E7002571E78027000080B50648AA
:1044D0004844FDF74BFB10B902F022F908B1002067
:1044E00080BD192080BD00BF802700002DE9F04D60
:1044F0009CB0DFF8D8B280461F4614460E4609EB42
:104500000B00FDF733FB0DF1900A00289AE8260412
:1045100054D0002C5AD0002958D0BAF1000F55D0F1
:104520000D4620463946904610F016FF2846414673
:1045300010F012FF01200DF16F028AF80000002038
:10454000ADF85400CDE913008DF86F0009EB0B00B6
:1045500013A9FDF7F9F900F0DFF9002D40F02F81E4
:1045600013A89B490322794410F00AFF002818BFC2
:1045700001203146002E18BF012108403044C0B24E
:10458000052800F0CB80269D012800F0D580022868
:1045900000F0E580032800F0F280042800F0FB80A2
:1045A000002840F010818B4A204639467A4410F0AA
:1045B000B7F900F0B4F9C06E1030C6E0934602F0CF
:1045C000AFF828B1012E05D90325F8E00525F6E05E
:1045D0001925F4E0002E63D013AD2021284610F0F9
:1045E000AFFEB8F80410D8F800002A462023FCF7E4
:1045F00038FC02AE4121304610F0A2FE3046412187
:1046000010F0AAFE7C4A701C00217A441F290CD8A5
:1046100015F8013B013103F00F061B09965DD35CD1
:10462000067000F8013C0230F0E70026394600F839
:10463000016C2046714A7A4410F072F902AC2046AF
:1046400010F0F6FE05462498594610F085FEABF1B1
:1046500001008AF8006082B2002A00F0AF802904CD
:1046600000F0AC8081B2ABB2B3FBF1F101FB1050B2
:1046700083B21D46002B18BF01252944269D8AF8C8
:104680000010C9B2A94240F29980269D000437D09B
:10469000481EA84234D1249805FB02411A4632E054
:1046A000524A204639462E467A4410F039F9249869
:1046B000594610F051FEABF10100002582B28AF894
:1046C0000050002A7BD081B21423B3FBF1F14843A0
:1046D000C0F1140083B21C46002B18BF01242144F2
:1046E000B1428AF8001069D900040FD0481EB042C8
:1046F0000CD13F48784406FB020124981A460AE090
:1047000005FB0241249810F01EFE57E0394878441A
:1047100006FB0201249810F018FE4FE0324A2046B2
:1047200039467A4410F0FCF8CDF800A024AB09EB30
:104730000B000ECB38303CE0274A204639467A44FD
:1047400010F0EEF800F0EBF8C06CDDE924120390F5
:10475000CDF800A002A82B46FDF712FB2BE01F4A64
:10476000204639467A4410F0DBF8DDE9241209EBE3
:104770000B002B46CDF800A0FDF740F91BE0184ACE
:10478000204639467A4410F0CBF809EB0B00CDF8FF
:1047900000A018300AE0134A204639467A4410F047
:1047A000BFF809EB0B00CDF800A02830DDE924129A
:1047B0002B46FDF782FA00F0AFF805B90025284630
:1047C0001CB0BDE8F08D0425F9E700BF802700008C
:1047D000CC2E0100D02A0100BA2B0100252C0100AB
:1047E000FD300100A02B0100E23101005B2B010034
:1047F000FB270100E12701002C2E0100302B0100D6
:10480000BFB518B3154D044609EB0500FDF7AEF929
:10481000F0B100200DF10302ADF80C00CDE901006C
:104820008DF8030009EB050001A9FDF78DF800F0F4
:1048300073F885B901A80A490322794410F0A0FD54
:104840000521002808BF0621217004E0052502E0AB
:10485000022000252070284604B0B0BD802700004B
:10486000F82B01007CB560B159B11C464BB114481E
:1048700002F0010619F800000138012803D826705B
:104880001AE0052519E0D1E90420104311D00020D9
:10489000CDE90000C868D1B26A46FDF7A9F900F079
:1048A0003BF855B9009906F123004900FDF796F948
:1048B00001E006F11B002070002528467CBD00BFEA
:1048C00080270000BCB500B30D46F1B1294600F0C9
:1048D0007DFC044602F046FAC4B90020297A6A46F3
:1048E000CDE900006868FDF783F9044602F03AFA62
:1048F00064B9084ADDE9000142400A4303D080F46C
:104900009D70084304D1002400E005242046BCBD6E
:104910001B24FBE72FCB0400054602F023BA00203E
:1049200005901420049001208DF8080009EB0B007D
:10493000704700002DE9F041A2B078B10E4669B190
:10494000044601F0EDFE05460020ADF88400CDE9F7
:104950001F008DF87B00D6F81C0120B105273846D2
:1049600022B0BDE8F081B06C05271628F7D100F021
:10497000F1FAF4D1E8460027402108F108008DF84B
:10498000007010F0DDFC142006F2412115971D97F0
:104990001697CDE9177719970DF17B0214904420F3
:1049A0001B911C9006F10A0000F0C2FA1FA94046B4
:1049B000FCF7CAFF074602F0D5F9002FCFD11FA898
:1049C00014490322794410F0DBFC052140F20A432C
:1049D0002170B6F84C20120412BA9A4204BF062184
:1049E000217096F85122FF2A08BF0131002808BF24
:1049F0000231B0FA80F0FF3A4009B2FA82F252096D
:104A0000104328430128AAD1002D18BF033121707B
:104A1000A5E700BF6E2A01002DE9F04DBEB0F0B150
:104A20001546E2B1DDF818B1BBF1000F17D0DDF883
:104A300024A1BAF1000F12D00F460646D0E98E012C
:104A4000E84A504008430FD13046984600F034FA07
:104A500050B101208AF80000D6F81C0130B10524BD
:104A600020463EB0BDE8F08D1124F9E7B06C052476
:104A70001628F5D100F06EFAF2D1002440218DF80D
:104A8000804020A8083010F05BFC142006F2412181
:104A900035943D943694CDE937443994ADF87C4053
:104AA000CDE91D448DF873400DF17302349044201C
:104AB0003B913C9006F10A000390339001208DF861
:104AC000C8008DF8E8001DA920A8FCF73DFF0446AA
:104AD00002F048F9002CC3D11DA8E849479C0322E5
:104AE000794410F04DFC002F3ED0B6F84C1040F247
:104AF0000A4206F25124090409BA914218BF01374B
:104B0000F9B204290BD32178FF2918BF0137F9B274
:104B10000028384618BF0230042988BF0746F8B27B
:104B20000B282ED0489B06F14C0701286AD002289A
:104B300074D003287CD0042800F08F80052800F072
:104B40009B80479C062800F0B080072800F0C080BA
:104B5000082800F0CC80092800F0E9800A2800F03D
:104B6000F280002840F00781D14A284641467A4425
:104B70000FF0D6FECF4A584621467A440FF0D0FEB9
:104B8000F7E0012041468AF800002846C74A7A44E7
:104B90000FF0C6FE47990229FFF461AFD6E924540D
:104BA000584610F0D9FB55EA04005E4603D1302088
:104BB0005E4606F8010B4798A6EB0B07A0F101082B
:104BC00055EA04001BD04745BFF649AF28462146A9
:104BD0000A22002310F028FA0C4600EB800101376E
:104BE000A5EB4101054641F0300106F8011BE7E75E
:104BF0009BF8000016F8011D0BF8011B30705E4594
:104C0000F6D8B6E09E4A284641461C467A440FF044
:104C100087FE00F094F9FDF76BFAA4E0994A284664
:104C200041461C467A440FF07BFE00F088F94CE0C8
:104C3000954A00F08BF97A440FF072FE0020479AF3
:104C4000CDF800A059462B461B901420CDE9194001
:104C500001208DF8600018A824E08C4A00F076F955
:104C60007A440FF05DFE479B204614215A46CDE959
:104C7000005AFDF75AF976E0854A284641461C4617
:104C80007A440FF04DFE0020479ACDF800A0594617
:104C900023460790142006900398059001208DF874
:104CA000100004A8FDF76CF85DE07A4A28464146FA
:104CB000274606F108041D467A440FF031FECDF870
:104CC00000A0204659463A462B46FDF7C8F94AE06F
:104CD000714A00F03BF97A440FF022FECDF800A0B3
:104CE00020A8594622462B46FCF788FE3BE004AC40
:104CF0005021204610F024FB684A284641467A4459
:104D00000FF00EFED6E948562046502110F024FB45
:104D1000B6F1FF3F31DD04AC55EA0600214631D142
:104D2000302021468DF81000601C04462AE05D4AC0
:104D300000F00CF97A440FF0F3FD1220CDE900A049
:104D400006F5D8700AE0584A00F000F97A440FF0EE
:104D5000E7FD1220CDE900A006F5947059462246E1
:104D60002B46FDF7A5FA044601F0FCFF002C7FF46A
:104D700077AE002474E6042472E62D2001348DF809
:104D800010002146A4EB0108039155EA06001FD04C
:104D9000B8F14E0F3FF763AE284631460A22002392
:104DA00010F0F0F80A2201EB810708F10108A0FBDE
:104DB0000223AA1A03EB4703054666EB03030E46DC
:104DC00002EBE37282EAE372303204F8012BDCE793
:104DD000039A944208D9107814F8011D02F8011BB7
:104DE0002070F6E715AA25E504A85021122201F04B
:104DF000E5FE03287FF433AE04A8294A502100239E
:104E000000267A4401F06CFF03287FF428AE04AC3E
:104E1000204610F00DFB479F05465846394610F0D6
:104E20009BFA781E8AF8006082B2002AA1D0290479
:104E30009FD081B2ABB2B3FBF1F101FB105083B252
:104E40001D46002B18BF01252944489D8AF80010F3
:104E5000C9B2A9428DD9000409D0481E4899884298
:104E600005D1489800FB024158461A4603E048988D
:104E700000FB0241584610F066FA7AE75229010019
:104E8000732401005B240100462401001C2401005E
:104E90007826010040260100B3260100FC22010013
:104EA0001F240100C327010074230100F32C01001B
:104EB000712801007124010070B59EB048B104460C
:104EC000D0E98E01194A5040084302D1D4F81C01A0
:104ED00010B100201EB070BDA16C00201629F9D1C0
:104EE000218940F20A42090409BA9142F2D16D4681
:104EF0000026402105F108008DF8006010F020FA2E
:104F0000142004F2412115961D961696CDE91766D8
:104F10001996149044201B911C9004F10A0000F093
:104F200007F82846FCF722FED4E700BF15AA25E5BE
:104F3000139001208DF848008DF868007047479A5B
:104F4000384659462346CDF800A0704728464146CA
:104F50001D467047308940F20A41000400BA884279
:104F600070470000FEB5D1B11C4E04460D4609EB5A
:104F70000600FBF793FF03281CBF0520FEBDFBF7CF
:104F800097FF0020A9B26A46CDE900002046FCF751
:104F90004DFADDE90071394318BFA84201D10C2058
:104FA000FEBD2D1A172DFAD304440D4815222146B3
:104FB000784410F0E5F908B12020FEBD09EB0600A9
:104FC0000021C0E9487100F58070202110F0C4F97B
:104FD0002046294600F006F8FEBD00BF5020000024
:104FE000BB2B010010B581B10C4689B2FBF774FFF1
:104FF00003281CBF112010BD05484844D0F82411D7
:105000002144C0F82411002010BD0C2010BD00BFA9
:105010005020000070B588B00C46D1E9485668466B
:10502000202110F08DF9B54210D168462021FBF700
:1050300067FF03280CD104F58072684620212023E5
:10504000FBF792FF033818BF052002E0012000E0C3
:105050001120C0B208B070BD002070470220704718
:105060002DE9F04D92B0012901D903209EE0DDE940
:105070001C4BDDE91A8A1E461746002957D001ACA1
:105080004121204610F05CF92046412110F064F9DE
:1050900048484C4B002248447B4400F58071601C1A
:1050A0001F2A0CD811F8014B013204F00F05240916
:1050B0005D5D1C5D057000F8014C0230F0E70024D6
:1050C000314600F8014C38463F4A7A440FF028FC3C
:1050D00001AE304610F0ACF907464046514610F09C
:1050E0003BF9AAF101008BF8004082B2002A5CD0A3
:1050F00039045AD081B2BBB2B3FBF1F101FB10709D
:1051000083B21C46002B18BF012421441C9C8BF841
:105110000010C9B2A14248D91C9C000438D0481ED6
:10512000A04235D104FB026140461A4633E0224AD0
:10513000384631467A440FF0F3FB4046514610F0B2
:105140000BF9AAF1010100208AB28BF800006AB3C2
:1051500088B216232546B3FBF0F404FB01F0C0F13E
:10516000160083B21946002B18BF01212144A94221
:105170008BF8001019D92C4600040FD0481EA0420D
:105180000CD10E48784404FB020140461A460AE05E
:1051900004FB0261404610F0D6F806E00848784467
:1051A00004FB0201404610F0D0F8002012B0BDE828
:1051B000F08D00BF50200000CF2001000A1D01002B
:1051C000F01C01009E230100392401002DE9F04D5F
:1051D00050B18B4641B1C78885880446BD4205D190
:1051E0000C264FF0000807E0052615E0781C002685
:1051F000E080206800EB070801F0B4FDBD420BD051
:1052000098F9000000280AD40020CBE90180CBF8EF
:105210000C008BF8000000263046BDE8F08DC0B2CF
:10522000B7280DD8012200218BF80020B0F18002B0
:10523000CBE902210BF104011DD1C1F80080EAE79E
:10524000BF280CD80121A28849308BF80010E188D2
:1052500000F0A2F812D20C264FF0000810E0022154
:10526000F7288BF800101AD80021A0F1C002CBE972
:1052700002210BF10401204600232EE000F096F8F5
:1052800001F070FDBAEB070075F10000C4D30022F5
:105290000023CBE90222EFB100F070F8FBE7E188D0
:1052A000A288093000F078F803D20C264FF00008ED
:1052B00001E000F07BF801F055FDBAEB070075F155
:1052C0000000A9D300220023CBE9022217B100F08D
:1052D00055F8FBE70BF10401204600F006F80646FE
:1052E00001F040FD002E97D195E770B5C488858800
:1052F0002D1BEE17AD1A76EB03033CBF0C2070BDDF
:105300002244C280006820440860002070BD70B54F
:105310008CB0A8B10C4699B104AD064620212846B0
:1053200010F00EF8307868B1012810D1D6E90220CB
:105330000021D2F1200371EB00000AD211241AE0FF
:10534000052418E0706800788DF82F0006E00A2424
:1053500011E0A81A716820300FF0F7FF01202146F4
:105360008DF80C002020CDE9015001A800F05FF875
:10537000044601F0F7FC20460CB070BD1902100283
:10538000013F41EA1263CBE9020318F8010B40EA3E
:105390000222CBE902237047C7B2A2EB010A4FEA0F
:1053A000EA75BAEB070075F100007047C8190026CE
:1053B000E080206800EB0108704770B598B10D4699
:1053C00089B12946044600F011F8064601F0CAFCEE
:1053D00056B905F10801204600F008F8044601F02E
:1053E000C1FC204670BD0526304670BDF0B5E0B169
:1053F000C28883889B1A082B17DBB1B1046800238D
:1054000000250026C1E90033072E84BF0020F0BD2F
:1054100097B22D0201320136E75D45EA1365C2807D
:1054200047EA0323C1E90035EEE70520F0BD70B57A
:1054300098B10D4689B129460446FFF7BEFF0646DE
:1054400001F090FC56B905F110012046FFF7B5FFB9
:10545000044601F087FC204670BD0526304670BD2D
:105460002DE9F04D1446802904D3002020606060AF
:10547000A0600DE00D46064641B1402D0BD1D6E9A6
:1054800002010022E26007C4BDE8F08D00F094FB49
:10549000E060BDE8F08D3F2D1BD896E883012A46D9
:1054A0000FF064FD82468B46C5F140023846414606
:1054B0000FF050FD10EB0A002A4641EB0B01C4E946
:1054C0000001D6E902010FF051FDC4E90201BDE877
:1054D000F08D402DC9D0D6E902010022C4E9022294
:1054E000A5F140020FF042FDC4E90001BDE8F08DD6
:1054F0002DE9F04591B01446B1F5807F03D32046E5
:1055000000F066FB62E00D46064679B1802D18D1A9
:10551000D6E90401C4E900010021F069E161B26942
:10552000A161C4E90411C4E902204FE000F044FB8A
:10553000E0603069206170696061B069A061F06904
:1055400043E07F2D36D80CAA30462946FFF788FF66
:1055500006F11008C5F1800108AA404600F039F8AC
:105560000DF1280EDDE90E23DDE9087A9EE84250B0
:105570008818029046EB0300039017EB0C004AEBEF
:105580000E07891853EB060150F1000029460090E0
:1055900047F100000190684600F110024046FFF715
:1055A0005FFF9DE84F10DDE9065784E84F10C4E91E
:1055B00006570BE006F11000A5F180012246FFF727
:1055C0004FFF0020C4E90400A061E06111B0BDE814
:1055D000F0852DE9F8451446802904D30020206089
:1055E0006060A06011E00D4641B1402D10D1002156
:1055F000C4E900110168A160406806E0D0E900122A
:10560000C4E900128168A160C068E060BDE8F88567
:105610003F2D18D890E8C00539462A4630460FF08D
:1056200099FCC4E90001C5F14002304639460FF04B
:105630009DFC06460F46404651462A460FF08AFC1E
:10564000801979410AE0402DC8D0D0E9000100223C
:10565000C4E90022A5F140020FF07CFCC4E902017C
:10566000BDE8F8852DE9F04D92B01446B1F5807F84
:1056700003D3204600F0ACFA69E00E46054679B146
:10568000802E1ED1D5E90001C4E904010021E8689B
:10569000E160AA68A160C4E90011C4E9062056E0EF
:1056A000D5E90001C4E90001A868A060E868E060ED
:1056B0002869206168696061A869A061E869E061A2
:1056C00045E07F2E35D802AA28463146FFF781FFF4
:1056D00005F110000EAA3146FFF77BFFC6F18001ED
:1056E0000AAA2846FFF7BCFE02980DF1280BDDE957
:1056F0000F67DDE9048A9BE82E080190039813EBFD
:10570000070C0090119845EB000E11EB0B01724154
:10571000DB19684151F1000042F10001019A231D9B
:105720002260009A83E8040504F1100282E8035025
:105730000DE0802E9DD0A6F1800104F110022846D4
:10574000FFF747FF0020C4E90000C4E9020012B0DF
:10575000BDE8F08D70B5D0E90041D0E9022343EAFD
:10576000010542EA0406354309D0802044EA0205D7
:1057700041EA0306354310D000F002FAF6E7D0E91B
:105780000441D0E90623002044EA020541EA030669
:10579000354302D000F0F4F9F6E770BDB0B500F083
:1057A00003FA15D1D1E90223D0E902456B406240EA
:1057B0001A430DD1D1E90423D0E904456B4062407E
:1057C0001A4305D1D1E90612D0E9060300F0E5B984
:1057D0000020B0BDF0B500F0C9F91CD1D1E90242FA
:1057E000D0E9025383EA020685EA04073E4312D158
:1057F000D1E90442D0E9045383EA020685EA0407AA
:105800003E4308D1D0E90623D1E906140020891AC5
:1058100074EB030103E00020611B72EB030138BF4E
:105820000120F0BDB0B50C460546FFF7D3FF08B127
:105830000120B0BD28462146BDE8B040FFF7AEBF0D
:105840002DE9F04DD1E90084D0E90075D1E902CE0F
:10585000D0E902BAB7EB080765EB04087D1E68F1D2
:1058600000030026BBEB0C047AEB0E0438BF0126C4
:10587000002E04BF3D464346C2E900538B6884684E
:10588000E31A9360C968C0688841D060BDE8F08DB4
:105890002DE9F04D88B00C4606460392FFF7D0FF85
:1058A00054F8100F56F810EF4FF00008231DD6F8EB
:1058B0000CA00ECB0293BEEB0005D6E901B36BEB57
:1058C0000107681ECDE9003267F10001B3EB020C5D
:1058D000DDF808C07AEB0C0238BF4FF00108B8F1D0
:1058E000000F08BF284608BF394680EA0E0281EA49
:1058F0000B052A4305D1DDE90010081A7AEB0C00EC
:1059000003E0BEEB00007BEB0100039D0AD2002008
:1059100001212A460790CDE90400069104A92846F2
:10592000FFF78EFF05F110023046214608B0BDE8B2
:10593000F04DFFF785BF2DE9F04DA6B08A460192E4
:10594000044606A8182198460FF0FAFC00200D9096
:1059500001200C902046FFF7FDFE05905046FFF712
:10596000F9FED4E9006BE56904F1080704908FCFD4
:10597000CDE90E6B159510AD8FC550462146FFF74A
:1059800029FFC0B1C8E9006B2021A068C8F8080051
:10599000E068C8F80C002069C8F810006069C8F811
:1059A0001400A069C8F81800E069C8F81C00019844
:1059B0000FF0C6FC6EE0DDE90410CDF800801EADEE
:1059C000CDF814A02A46441A50462146FFF790FD10
:1059D00006A816AA2146FFF78BFD0EA92846FFF759
:1059E000F9FE28B11EA800F0EFF816A800F0ECF8B8
:1059F00000204FF000084FF0000A4FF0000B002687
:105A00000024049000200EAF1EAD039000200290F1
:105A100005993846FFF706FF48B338462946FFF791
:105A200001FFD8B1384629463A46FFF731FF1D98A5
:105A3000029901431C980291039901431B98039119
:105A400004431A9816AB06430FCB48EA01084BEA09
:105A5000030B4AEA020A04990143049128460121F2
:105A60002A46FFF7FFFD16A800F0AEF8D0E7019830
:105A700004990DF1380C159F009D80E8020D0399E3
:105A8000C0E9046481610299C1619CE85F10EF6123
:105A900085E85F1026B0BDE8F08D10B50139002211
:105AA0008A4228BF10BD835C445C8454435401394E
:105AB0000132F5E72DE9F04D98B018B314460AB35A
:105AC00000251E46022B1ED3D0E900C2D0E904E314
:105AD0000F46D0E90281D0E906A0CDE91281CDE9D7
